:10F80000314000033C4000023D400400B012C2F809
:10F81000B01218F8B012D2F8B240805A2001F2406B
:10F820008C002200F2408C002600F24080001A007A
:10F83000F24080001B00B240D0026001B240700272
:10F840007201B240E0006401B240E0006601924201
:10F8500000027401924202027601B240D00280019D
:10F86000B24070029201B240E0008401B2404E000A
:10F870009401B2500A000002924200027401B25098
:10F8800032000202924202027601B290700200023D
:10F89000023882430002B2907002020202388243B0
:10F8A00002023C40F401B012ACF8E33F0F43063CC7
:10F8B000003C3E404B013E53FE2F1F530F9CF83B34
:10F8C00030410D5C033CCC4300001C530C9DFB23DA
:0CF8D00030413040D6F83040DAF8FF3FFD
:02FFFE0000F809
:00F8000107
:00000001FF
