:10440000C0F9A4B0999282F88090314000443C40B9
:104410000A243D400800B013D8453C4000243D40EC
:1044200000443E400A00B013EC45B0133C44B013C6
:10443000F4451F15B01332451E170013B240805AC1
:104440005C01F2432402F2434502D2432502F242C8
:104450002702F2422302F24038000702F2403800FD
:104460000302D2C32302B240D0028003B240100044
:104470008203B24070029203034332D20343F2B08C
:10448000200001020E7E5E534E9306203C406400E5
:10449000B013B04592530C24F2B0100001020E7E0E
:1044A0005E534E9306203C406400B013B045B253B7
:1044B0000C24F2B221020E7E5E534E9306203C4045
:1044C0006400B013B04582430C24B013D244D73FEC
:1044D00003431C420C243E40E803B0136845C24C21
:1044E00011243E40E8031C420C24B01368450C4ED6
:1044F0003E406400B0136845C24C10243E40E803BF
:104500001C420C24B01368450C4E3E406400B013AE
:1045100068450C4E3E400A00B0136845C24C0F245B
:104520003E400A001C420C24B0136845C24E0E24C3
:1045300010011F420A245F4F0E244F4FD24F002418
:1045400022021E435F420A245F830230CF180E5EB0
:104550005F537EE3C24E430292530A24A2920A247E
:10456000023882430A241001091209430E930334CE
:104570003EE31E5319D30C9303343CE31C5339E33D
:10458000B013984519B302243CE31C5329B3022409
:104590003EE31E53394110010F4E0D4C0E431C4398
:1045A0000D5D0E6E0E9F01280E8F0C6CF92B100105
:1045B0000F43063C003C3E404B013E53FE2F1F5331
:1045C0000F9CF83B10010F4C043CFF4D00001F53A3
:1045D0003E530E93FA2310010D5C033CCC430000C4
:1045E0001C530C9DFB2310018000F0458000C64544
:0845F000FF3F03438000E84592
:02FFE2003244A7
:02FFFE000A44B3
:00440A01B1
:00000001FF
